:020000040800F2
:10000000600A00209D020008374E000813440008D3
:10001000354E00084D1600082D6100080000000054
:100020000000000000000000000000001D52000859
:100030004F16000800000000394E00081F5200084B
:10004000B7020008B7020008B7020008B7020008AC
:10005000B7020008B7020008B7020008B70200089C
:10006000B7020008B7020008B7020008B70200088C
:10007000B7020008B7020008B7020008B70200087C
:10008000B702000800000000B7020008B70200082D
:10009000B7020008B7020008B7020008B70200085C
:1000A000C5520008B7020008B7020008B7020008EE
:1000B000D1520008DD520008E9520008B7020008DA
:1000C000B7020008B7020008B7020008B70200082C
:1000D000B702000821610008B7020008B702000853
:1000E000B7020008B7020008B7020008B70200080C
:1000F000B7020008B7020008B702000800000000BD
:1001000000000000B702000800000000B70200086D
:10011000B702000800000000B7020008B70200089C
:10012000B7020008B7020008B7020008B7020008CB
:10013000B70200080000000000000000B70200083D
:10014000B7020008B702000800000000000000002D
:10015000000000000000000000000000000000009F
:10016000000000000000000000000000B7020008CE
:10017000B7020008000000000000000000000000BE
:1001800000000000B70200080000000000000000AE
:10019000000000000000000000000000000000005F
:1001A0000000000000000000B7020008B7020008CD
:1001B000B7020008B7020008B702000800000000FC
:1001C00000000000B702000800000000000000006E
:1001D000B7020008B702000800F002F800F04FF87C
:1001E0000AA090E8000C82448344AAF10107DA4592
:1001F00001D100F044F8AFF2090EBAE80F0013F095
:10020000010F18BFFB1A43F001031847C480000018
:10021000E4800000103A24BF78C878C1FAD85207A9
:1002200024BF30C830C144BF04680C607047000070
:100230000023002400250026103A28BF78C1FBD8EF
:10024000520728BF30C148BF0B607047662906F0CF
:10025000EA86642900F0F880632900F072840020A7
:1002600070471FB506F0DAFE00F078FC04000020AD
:10027000002106F0FFF9E0601FBD10B510BD00F0D1
:100280006DFD1146FFF7EDFF05F0A2FF00F08BFDBD
:1002900003B4FFF7F2FF03BC00F0CEFD094880472E
:1002A00009480047FEE7FEE7FEE7FEE7FEE7FEE758
:1002B000FEE7FEE7FEE7FEE704480549054A064B70
:1002C00070470000B5520008D90100086004002002
:1002D000600A0020600600206006002053EA020C3D
:1002E00000F069802DE9F04B4FF00006002B1FBF96
:1002F000B3FA83F503FA05F424FA05F65E4012BF5B
:100300001643B2FA82F502FA05F4C5F120051EBFC4
:1003100022FA05FC44EA0C04203556EA044C4FEA64
:10032000144418BF641C4FF000084FF000099042BD
:1003300071EB030C39D3002919BFB1FA81F701FA27
:1003400007F6B0FA80F700FA07F6C7F120071EBFDC
:1003500020FA07FC46EA0C062037B6FBF4FCA7EBB4
:100360000507103F07F01F0BCBF120060CFA0BFB23
:100370002CFA06F644BFB3460026202FA4BF5E46E3
:100380004FF0000B5BEA060C08BF4FF0010B19EBB6
:100390000B09ABFB027C48EB0608C01B06FB02CC3A
:1003A0000BFB03CC71EB0C01C1E70B460246414647
:1003B0004846BDE8F08B13B54FF000004FF0000148
:1003C000AFF30080BDE81C40704700000FB41CB5BF
:1003D000074B06AA7B4469460090059800F08FFB06
:1003E0000020694600F09EFB1CBC5DF814FB000079
:1003F0004D07000070B50C460546012A05D0287847
:10040000800600D5EA69002302E0012305E05B1CB9
:10041000934202D2E05C0028F9D1A869E618C01A1C
:10042000A861286A184428622846AFF3008004E0D7
:10043000D5E9012114F8010B9047B442F8D32846BE
:10044000AFF3008070BD00002DE9F04106460024A6
:1004500010687529314616A510D0AFF3008000282A
:1004600002DA404213A507E031688A0701D512A5D8
:1004700002E0490704D511A5012401E0AFF3008093
:1004800000210A2206F1240709E0B0FBF2FCB0FBD0
:10049000F2F302FB1C00303078541846491C002847
:1004A000F3D123462A463046BDE8F04100F0B9B802
:1004B000000000002D0000002B00000020000000C4
:1004C0002DE9F0474FF0000A89460446C0F820A005
:1004D0002046E1688847002876D0252806D0D4E950
:1004E00001219047206A401C2062F1E7E168204624
:1004F00000258847C4F81CA006460027C4F818A0A9
:100500002A2E09D0304605F03AFE38B304EB8708AE
:10051000303EC8F8186019E059F8041B204604EB77
:1005200087029161E1688847012F064618D1E0698A
:10053000002820DA25F020051DE0D8F8180000EB8F
:10054000800006EB40003038C8F818002046E1680B
:100550008847064605F013FE0028EED1012F0AD089
:100560002E2E08D12046E16888477F1C0646022FC0
:1005700045F02005C4DBA069002803DA404245F0BD
:100580000105A061E80701D025F01005B6B1A6F17C
:100590004100192802D8203645F400654A46314604
:1005A000204625604D46FFF751FE58B1012806D080
:1005B000ED1D25F0070000F1080989E704E005F1C9
:1005C000040985E730468AE7206ABDE8F0874FF0E6
:1005D000000200B5134694469646203922BFA0E893
:1005E0000C50A0E80C50B1F12001BFF4F7AF09079F
:1005F00028BFA0E80C5048BF0CC05DF804EB890090
:1006000028BF40F8042B08BF704748BF20F8022BD2
:1006100011F0804F18BF00F8012B704770477047EA
:1006200070472DE9F0470D4699469246044600F181
:1006300024080168880604D5E06921F010012160D2
:1006400000E00120A84201DD471B00E00027A1696E
:100650007A1902EB0900081AA0612078C00602D4BA
:100660002046AFF30080002608E0D4E901211AF803
:1006700006009047206A401C761C20624E45F4DB41
:100680002078C0060AD52046AFF3008006E0D4E902
:10069000012130209047206A401C2062381EA7F1BB
:1006A0000107F4DC07E0D4E9012118F805009047C0
:1006B000206A401C2062281EA5F10105F3DC2046BB
:1006C000AFF300802078000602D50220BDE8F08755
:1006D0000120FBE770472DE9FF4F0C461E464FF007
:1006E000FF378BB0D2E90001DDF860800A908A46BE
:1006F000C1F30A5505B93D46002108464FF00000F8
:10070000BAF1000F00F4400005DA00EB80004FF46E
:10071000400101EA50004FEA9059B9F1010F00DDA4
:10072000B9460A9850EA4A000ED044F61050A5F295
:10073000FF3545432F14B8F1000F1ED07542291E16
:100740001EDDC9F100021CE0B8F1010F4FF00000FE
:1007500001D0302103E0F24305E02154401CB042B7
:10076000FBDB30460022002121540B99C1F80880A0
:10077000C1E900200FB0BDE8F08FBD1B6D1CDEE7A6
:100780004A4600DA694206A800F072FA06AB93E81E
:10079000070003AB83E8070050460A9900F053FBBB
:1007A0008DE80700A0F500501F3800900398002D39
:1007B0000ADD42F21F014A460844002303A90390C0
:1007C000684600F0BCFD09E0A0F500504A461F381D
:1007D000002303A90390684600F0C6FD8DE80700DA
:1007E0000004000C03D04FF0FF30410800E0104639
:1007F000B8F1000F03D00022009215461EE0751ECE
:1008000005D400F0AFF9303262556D1EF9D5B3460C
:100810000122084302D000227F1C04E02078302807
:1008200001D100227F1E002A099784D01DE0112DDE
:1008300007DA00F097F9303262556D1C50EA010278
:10084000F5D1084302D00098C8B10EE00021681E1F
:1008500005E0235C625C63542254401E491C8142C3
:10086000F7DBAB46A81B401E0990002004F80B00E4
:100870000B98099AC0F80880C0E9002B7AE7112686
:100880004FF0000857E72DE9F04F88460446D21D87
:1008900022F0070191B0D1E90001CDE90A0105F08C
:1008A00046FC02460B98C00F01D02D2007E02068BF
:1008B000810701D52B2002E0202101EAC000032A94
:1008C000099001D0072A05DB03464146204600F087
:1008D0008FF90BE12078800601D5E06900E0062061
:1008E000B8F1650F814606D0B8F1660F18D0B8F19F
:1008F000670F70D131E00020B9F1110F009001DBDA
:10090000112301E009F101030AAA01A90CA8FFF7CC
:10091000E2FEDDE90C70002609F10105834647E09F
:1009200001204B4600904FF000470AAA01A90CA8ED
:10093000FFF7D1FEDDE90DB00C995D46002610B938
:1009400009F101000D18B9EB050003D4C0F1FF3621
:1009500009F10105A5EB09002BE0B9F1010F01DA5E
:100960004FF001090020B9F1110F0090484601DD58
:10097000112300E003460AAA01A90CA8FFF7ABFE69
:10098000DDE90C704D4600268346207800070AD426
:10099000AB4500DA5D4601A8012D04DD411911F8CF
:1009A000011C302907D04F4502DA17F1040F04DA91
:1009B000012082460FE06D1EEEE7002F02DCED1BEA
:1009C0003E4403E0781CA84200DD7D1CB81B00F10A
:1009D000010A4FF000472078000703D4AA4501DB45
:1009E0004FF0FF3A0021B7F1004F0DF143088DF8A9
:1009F000431024D002202B23002F01DA7F422D2325
:100A00000A21021EA0F1010000DC5FB197FBF1FC9E
:100A100097FBF1F201FB1C7C17460CF1300C08F837
:100A200001CDEEE7A8F1010003702188090501D589
:100A3000452100E06521A0F1010800F8011C09989A
:100A40000FA9A1EB0807FF1D00B10120411901EB1F
:100A5000EA70A1693844081A401EA0612078C006D7
:100A600002D42046AFF30080099828B1D4E90121CF
:100A70009047206A401C20622078C00622D520467C
:100A8000AFF300801EE0002E04DBB34502DD01A8B9
:100A9000805D00E03020D4E901219047206A401CAD
:100AA0002062761CAAF101005FEA000A0AD100F078
:100AB00055F8C0680168405CD4E901219047206A7C
:100AC000401C2062281EA5F10105DCDC07E0D4E90A
:100AD000012118F8010B9047206A401C2062381E43
:100AE000A7F10107F3DC2046AFF30080032011B02B
:100AF00041E6000001694A1C02610878704700B5B0
:100B00008FB0CDE901310021059105497944CDE946
:100B1000031011466846FFF7D3FC0FB000BD00007C
:100B2000E5FFFFFF0A6802F8010B0A60704710B585
:100B3000436913B1AFF3008001E0FFF75BFC0120D4
:100B400010BD127800F124010A7000224A700122BF
:100B5000EDE711684FF0FF32E9E700000048704709
:100B60002004002030B5B0F10A024FEA900E71F176
:100B700000034EEA817EB0EB0E0061EB91014FEA7B
:100B8000101E4EEA017E10EB0E0041EB11114FEAF0
:100B9000102E4EEA016E10EB0E0041EB11214FEAD0
:100BA000104E4EEA014E10EB0E0041EB1141401881
:100BB00041F100014FEAD00040EA41704FEAD10113
:100BC00010EB80054FEA810444EA907444EB010481
:100BD0006D1944EB0404521BA3414FF0000348BFBE
:100BE0000A3200D530BD401C41F1000130BD00008B
:100BF0002DE9F0411F46044603260168072A01F447
:100C0000006004DB08B116A505E016A503E008B1F5
:100C100015A500E015A521F010002060A069C01EF8
:100C2000A0610FB1401EA0612046AFF300804FB11C
:100C3000D4E9012138469047206A401C2062C01C3C
:100C4000206206E0206AFAE7D4E9012115F8010BD9
:100C50009047761EF8D22046AFF30080BDE8F081C1
:100C60004E414E006E616E00494E4600696E660050
:100C70002DE9F047814616468AB0354878440DC8BC
:100C80008DE80D0032487844801C03AC0DC884E820
:100C90000D0041F69B300844372190FBF1F290FBA8
:100CA000F1F5A5F1800501FB12041B3C02D564425D
:100CB000012000E00020DFF898A080460027FA44D9
:100CC000AAF1BE0A0EE0E0070AD03246684607EBFA
:100CD000470101230AEB810100F046FB8DE8070084
:100CE00064107F1C002CEED1194F7F44AE3F19E0F9
:100CF000E80715D007EB04100DF1180A90E80E0074
:100D00008AE80E00C068F04201D198190890324676
:100D1000012306A903A800F027FB03AB83E8070023
:100D20006D10641C002DE3D14FF00103324669467B
:100D3000B8F1000F03A802D000F001FB01E000F0C1
:100D400013FBC9E90001C9F808200AB0BDE8F08723
:100D50003876000000487047000400207546FFF711
:100D6000F9FFAE4605006946534620F00700854668
:100D700018B020B5FFF7A0FABDE820404FF00006FC
:100D80004FF000074FF000084FF0000B21F0070173
:100D9000AC46ACE8C009ACE8C009ACE8C009ACE8B6
:100DA000C0098D46704710B50446AFF30080204659
:100DB000BDE81040FFF76CBA4FF0013C50F8042B2F
:100DC00051F8043B9A4221D1A2EB0C03934313EA5E
:100DD000CC1317D150F8042B51F8043B9A4215D18B
:100DE000A2EB0C03934313EACC130BD150F8042B62
:100DF00051F8043B9A4209D1A2EB0C03934313EA46
:100E0000CC13DBD04FF00000704700BFD01A01BAFE
:100E1000B1FA81F101F0180122FA01F0CB40C1F1E1
:100E20002001DBB2C0B2C01A2CFA01F3D11A9143EF
:100E300011EAC311E6D1704701491820ABBEFEE7A5
:100E40002600020070475FEA400C08BF91F0000FD7
:100E50004FEA8C234FEAC12243EA51514FEA1C501A
:100E600018BF00F5F0404FEA300018BF41F00041D4
:100E70005FEA6C5C00F02980BCF1FF3F08BF40F0E6
:100E800080407047130C06BF12044FF0100C4FF057
:100E9000000C130E04BF12020CF1080C130F04BF58
:100EA00012010CF1040C930F04BF92000CF1020C20
:100EB000D30F04BF52000CF1010C11464FF0000299
:100EC000A0F11F00A0EB0C00704711F0004F08BF0D
:100ED000704731F000413FF4D5AF0B0C06BF090459
:100EE0004FF0100C4FF0000C0B0E04BF09020CF178
:100EF000080C0B0F04BF09010CF1040C8B0F04BF8D
:100F000089000CF1020CCB0F04BF49000CF1010C5D
:100F1000CCF12003A0EB0C0022FA03F302FA0CF24E
:100F200041EA030100F10100704720F07F4C80EAA4
:100F3000030023F07F47ACEB070303F57C5300F07D
:100F4000004003F1FF032DE980494FEA154B09B436
:100F50004FEA144325EA0B4E24EA03480FF2042615
:100F600006EB132749083E785FEA320203FB066767
:100F7000C7F5000707FB06F64FEA54374FEAD64697
:100F800006F1020607FB066CCCF1005C4FEA1C4739
:100F90002CEA074C07FB06F40CFB06F504EB1546A0
:100FA0004FEA961634BF00204FF000404FEAD13789
:100FB00006FB07FC4FEA1C4C0CFB0BF7D21B03FB98
:100FC0000CF761EB07010CFB0EF7B0EB074072EB7F
:100FD00017420CFB08F734BFA2EB0742B2EB074203
:100FE00061EB17414FEA0C444FEA910706FB07FCFF
:100FF0004FEA1C4C0CFB0BF7B0EBC74072EB5732BF
:1010000003FB0CF734BFA2EBC742B2EBC74261EB64
:1010100057310CFB0EF7B0EBC70072EB57720CFBAD
:1010200008F734BFA2EBC702B2EBC70261EB5771FE
:10103000039F4FEA816141EA921104EBCC044FEA2D
:10104000D1374FEA826206FB07FC42EA90124FEA70
:1010500080604FEA1C4C0CFB0BF7D21B03FB0CF718
:1010600061EB07010CFB0EF7B0EB074072EB174288
:101070000CFB08F734BFA2EB0742B2EB074261EB6F
:1010800017414FEA8C554FEA910704EB9C2406FB6D
:1010900007FC4FEA1C4C0CFB0BF7B0EBC74072EBA4
:1010A000573203FB0CF734BFA2EBC742B2EBC74287
:1010B00061EB57310CFB0EF7B0EBC70072EB5772C8
:1010C0000CFB08F734BFA2EBC702B2EBC70261EB1F
:1010D000577115EB4C254FEA816141EA92114FEAB5
:1010E00082624FEAD13742EA901206FB07FC44F1D4
:1010F00000044FEA80604FEA1C4C0CFB0BF7D21B3C
:1011000003FB0CF761EB07010CFB0EF7B0EB07409C
:1011100072EB17420CFB08F734BFA2EB0742B2EBAD
:10112000074261EB174115EB1C154FEA813141EA8B
:1011300092414FEA823242EA90424FEA80304FEACF
:101140000C7644F1000448EA03434EEA0B484FF0A2
:10115000000EB2EB080C71EB030724BF6246394660
:101160004EEB0E0E4FF0000B0018524149414BEB75
:101170000B0BB2EB080C71EB03077BF1000B24BFE8
:10118000624639464EEB0E0E4FF0000B00185241EE
:1011900049414BEB0B0BB2EB080C71EB03077BF1F6
:1011A000000B24BF624639464EEB0E0E51EA020791
:1011B00018BF46F0010616EB0E7655F1000254F109
:1011C000000103D5BDE88901BDE80088BDE88901BB
:1011D000BDE80048B619524141EB0101A3F10103FA
:1011E000704780807F7E7D7C7B7A79787776767594
:1011F0007473727171706F6E6E6D6C6C6B6A6A690C
:101200006868676666656464636362616160605FA5
:101210005F5E5E5D5D5C5C5B5B5A5A59595858571E
:101220005756565555555454535352525251515086
:1012300050504F4F4F4E4E4D4D4D4C4C4C4B4B4BD9
:101240004A4A4A494949484848474747474646461F
:10125000454545444444444343434342424242415A
:101260004141002B9C4630D477002BD01CB54FEA6F
:10127000370703B44FF010004FF01001BAF1000F20
:1012800006D0BCF1000FDCBF40F0080040F00801C0
:101290004FF000000FBCBDE810400BF1010BBBF19B
:1012A000010F08BF5FEA170722BF12F1010211F117
:1012B00001014FF0004143F1000300F0004043EA18
:1012C00000007047F9D35708D0E746EA064613F105
:1012D000400F4FEA16461FDD13F1200FDFBF164304
:1012E0000A46002120335B42BED0C3F1200746EA04
:1012F000064602FA07F74FEA164646EA0706C3F122
:10130000200722FA03F201FA07F721FA03F14FF05E
:10131000000342EA0702A7E746EA020646EA064653
:101320004FEA164646EA0106BCBF46EA0646360CB8
:101330004FF000034FF000024FF0000194E72DE959
:10134000804C9A46934670B491E8380007C831EA59
:10135000400C48BF34EA430C03D5FFF7E6FDFFF726
:1013600080FFF0BCBDE8008C2DE9804C9A46934686
:1013700070B491E8380007C810F0804F08BF13F030
:10138000804F03D100F005F8FFF76BFFF0BCBDE81C
:10139000008C20F07F4780EA030023F07F4C07EBAE
:1013A0000C03A3F57C5300F00040A3F1FE0392F080
:1013B000000F00F0B38095F0000F00F077802DE96A
:1013C00001494FEA11404FEA144621EA004800FB68
:1013D00006FC24EA064708FB06F607FB08F800FBB4
:1013E00007F718EB06484CEB164C4FEA124B18EB7C
:1013F00007484FEA15464CEB174022EA0B4E0BFB11
:1014000006FC25EA06470EFB06F607FB0EFE0BFB65
:1014100007F71EEB064E4CEB164C4FF000061EEB8A
:10142000074E4CEB174B18EB0B0840F1000018EB84
:101430000E0B58EB000840F100008F1A4FF000012E
:101440003CBFC943661B14BFB5EB040C00213CBF75
:10145000C943F61B4FEA17444EEA8E0E27EA0445AD
:101460004FEA1C4704FB07622CEA074C05FB07F711
:101470000CFB05F604FB0CFC16EB074642EB17428F
:1014800016EB0C4642EB1C421BEB060658EB020225
:10149000414146EA9E0601D5BDE80189B61952418F
:1014A00041EB0101A3F10103BDE801894FEA1445B5
:1014B0004FEA114724EA054621EA074C05FB07F4E9
:1014C00006FB07F70CFB06F105FB0CFC11EB0741D3
:1014D00044EB17444FEA124711EB0C4144EB1C4418
:1014E00022EA074C05FB07F206FB07F70CFB06F6A2
:1014F00005FB0CFC16EB074642EB174216EB0C46BD
:1015000042EB1C456A1854F1000148BF7047B619F8
:10151000524141EB0101A3F10103704795F0000F27
:1015200037D04FEA11424FEA144721EA024624EA33
:10153000074C02FB07F106FB07F70CFB06F402FB66
:101540000CFC14EB074441EB17414FEA154714EB31
:101550000C4441EB1C4125EA074C02FB07F506FB56
:1015600007F70CFB06F602FB0CFC16EB074645EBF7
:10157000174516EB0C4645EB1C42121951F10001C0
:1015800048BF7047B619524141EB0101A3F1010375
:1015900070474FEA14454FEA114724EA054621EA0D
:1015A000074C05FB07F106FB07F70CFB06F24FF0B3
:1015B000000605FB0CFC12EB074241EB174112EB56
:1015C0000C4251EB1C4148BF7047921841EB01019E
:1015D000A3F101037047000070B5044600688168FC
:1015E00011F0010F2DD18168174A11421AD181687B
:1015F000D5432940491C816000F0F8FD06461BE0F8
:10160000816811F0010F03D181682940491C816074
:1016100000F0ECFD801B02280ED920680068C04352
:10162000C00709D0E06D40F01000E065206E40F08A
:1016300001002066012070BD20680168C943C90708
:10164000DED1002070BD00003F000080FEE7704743
:10165000002240F6B83306E00021491C89B29942C5
:10166000FBD3521C92B28242F6D3704772B6FEE7A9
:101670002DE9F047044690F858009CB00E464FF014
:101680000009012815D0012084F85800002517957D
:10169000189520684FF0A04840450ED1284F00977C
:1016A000384603F0C1F88246206803F0BDF860B107
:1016B0000EE002201CB0BDE8F087E06D40F0200095
:1016C000E06584F858500120F4E7BAF1000F09D022
:1016D000E06D40F02000E0654FF0010984F85850BB
:1016E0004846E7E71748326840F61F71002A8268CB
:1016F00022F4604216D094F8383042EA43327368DC
:101700001A438260D8F80820BB6802F0010203F097
:1017100001031A43E2D1B36832681A4383688B43EA
:101720001A430BE08260D8F80820BB6802F001027F
:1017300003F001031A43D1D182688A438260CDE766
:1017400000010050000300502DE9F84F0027044627
:10175000009790F85800DFF8E0930D46B84601284E
:1017600011D0012684F85860206803F059F860B160
:10177000E06D40F02000E0655FF0010784F85880DC
:101780003846BDE8F88F0220FBE7D5E900210C239D
:10179000206803EA91131844036B01F01F014FF016
:1017A0001F0C0CFA01FCC2F3846223EA0C038A408A
:1017B00013430363206803F033F88246206803F084
:1017C0002BF85AEA00003CD1AA6829682068B2F1D7
:1017D000004F37D003F02CF82068416921F0004118
:1017E000416120686969C268C2F3C1025200914038
:1017F0002A69042A31D000EB82002B68026EDFF8E0
:101800003CC303F0F84302EA0C020B431A4342F0D4
:101810000041016620682A69A96900EB8200026E16
:1018200022F080720A430266297F22682869012912
:1018300010D0002102EB8000026E22F000720A43F9
:1018400002667DE0002202F0F3FF2068416941F06A
:101850000041C5E74FF00071ECE7002102F0D6FF30
:10186000400320684FF0000172D002F0CFFF90FAE1
:10187000A0F0B0FA80F1286842036ED090FAA0F090
:10188000B0FA80F0814204D100221146206802F0B3
:10189000DEFF0121206802F0B9FF400320684FF00D
:1018A00001015DD002F0B2FF90FAA0F0B0FA80F131
:1018B0002868420359D090FAA0F0B0FA80F0814233
:1018C00004D100220121206802F0C1FF022120681A
:1018D00002F09CFF400320684FF0020148D002F064
:1018E00095FF90FAA0F0B0FA80F12868420344D046
:1018F00090FAA0F0B0FA80F0814204D100220221D7
:10190000206802F0A4FF0321206802F07FFF40035B
:1019100020684FF0030133D002F078FF90FAA0F076
:10192000B0FA80F1286842032FD090FAA0F0B0FA04
:1019300080F0814204D100220321206802F087FF59
:101940002068816811F0010F22D0ACE000E004E0D3
:1019500002F05CFFC0F384618DE7C0F3846091E71F
:1019600002F054FFC0F38461A2E7C0F38460A6E7ED
:1019700002F04CFFC0F38461B7E7C0F38460BBE7BB
:1019800002F044FFC0F38461CCE7C0F38460D0E789
:101990002A7B296850F8B03FC1F3120C23EA0C03EC
:1019A00002F0180C664A22FA0CF20A401343036054
:1019B000E968494577D1286841031CD090FAA0F125
:1019C000B1FA81F1491C01F01F0109294FEA4031A8
:1019D00032D8002912D000BF90FAA0F1B1FA81F1FB
:1019E00001F1010101F01F0106FA01F609D100BF62
:1019F000C0F3846109E0C0F38461E3E7C0F384616C
:101A0000EEE790FAA0F1B1FA81F101F1010101F0E4
:101A10001F0146EA816102D1C0F3846003E090FABD
:101A2000A0F0B0FA80F000F1010000F01F0000EB20
:101A3000400041EA005132E000290ED090FAA0F1B6
:101A4000B1FA81F101F1010101F01F0106FA01F67D
:101A500006D100BFC0F3846106E0C0F38461F1E702
:101A600090FAA0F1B1FA81F101F1010101F01F0139
:101A700046EA816102D1C0F3846003E090FAA0F0ED
:101A8000B0FA80F000F1010000F01F002D4A00EBD9
:101A9000400002EB005041EA000141F00071AA68E9
:101AA000206802F0C5FE28482A6802423FF466AE6C
:101AB00026488168264B01F0E0719A4202D0254BFE
:101AC0009A421CD10B021AD42268B2F1A04F7FF4C3
:101AD00055AE826841F4000122F0E0720A43826050
:101AE0001D481E490068B0FBF1F0401C00EB4000AF
:101AF000800000E0401E00900028FBD13EE6184D1B
:101B0000184BAA4207D1CD0105D422689A42F5D0DC
:101B100041F0807109E0144DAA42EFD14A02EDD4A0
:101B200022689A42EAD041F48001826822F0E07291
:101B30000A43826022E6000000007F4000F0FF03BD
:101B4000FFFF0700000020FE000008800003005097
:101B5000000021C31000C0907C000020400D030055
:101B6000000052C700010050000084CB0068006CE8
:101B700070470000F8B54FF0000504002E460095B0
:101B800002D0E06D10B107E00120F8BD204600F062
:101B9000EFF8266684F8586020688168C1F34071C8
:101BA00019B181686A4A1140816020688168C1F377
:101BB000007189B98168674A114041F080518160A4
:101BC000654866490068B0FBF1F04000801C00E009
:101BD000401E00900028FBD120688168C1F300718D
:101BE00041B9E16D41F01001E165216E41F0010163
:101BF0002166012502F014FEE16DC90600D430B162
:101C0000E06D40F01000E06501252846F8BDE06D6C
:101C100020F4807040F00200E0652068806810F0D9
:101C2000010F11D14FF0A04080684D4900F0010034
:101C3000896801F00101084306D14A486168826859
:101C400022F47C120A438260E168E06B627F084301
:101C5000A16841EA4231084394F8241040EA014067
:101C6000012904D1218D404A02EB41410843E16A38
:101C700029B101F47871226B014342EA0100216825
:101C8000CA683A4B1A400243CA6020680169626B15
:101C900021F0406111430161206802F0C1FD064658
:101CA000206802F0B9FD30432ED1207F94F838101F
:101CB000800340EA41022068C16844F2020399436C
:101CC0001143C16020690028206801690AD041F4ED
:101CD00080310161206850F8C01F22696FF30D0147
:101CE000114307E021F480310161206850F8C01FE2
:101CF0006FF30D01016094F8400001280CD02068BA
:101D0000016921F001010161606901282068016B0E
:101D100021F00F0111D013E0D4E911010843D4E9F7
:101D200013121143084321680A6940F2FC739A4375
:101D3000104340F001000861E6E7226A521E114399
:101D40000163E06D20F0020040F00100E0655CE717
:101D5000C0FFFF5FC0FFFF7F7C000020400D03003D
:101D600000010050000300500000FEFF0740F0FF9C
:101D7000F0B587B0044614216846FEF728FC214BD5
:101D8000266800241A6803251F482049521CB6F112
:101D9000A04F06D01E4FBE4231D11A60012A16D084
:101DA0001DE01A60012A07D1CA6C42F40052CA64CD
:101DB000CA6C02F400520592CA6C42F00202CA6474
:101DC000C96C01F0020105914FF4805111E0CA6C19
:101DD00042F40052CA64CA6C02F400520592CA6C02
:101DE00042F00202CA64C96C01F0020105914FF48D
:101DF0000041CDE900150294694600F009F907B0E9
:101E0000F0BD000004000020000400480010024063
:101E1000000100502DE9F04104463848806800F088
:101E20001F05206802F0FCFC18B102210846BDE83D
:101E3000F08194F8580001280CD0012084F8580053
:101E40002046FFF7C9FB01004FF0000304D084F8DF
:101E50005830EBE70220EAE7E06D40F6016290437C
:101E600040F48070E065264A20684FF0A04690421A
:101E700001D1374600E00746874200D01DB9E76D23
:101E800027F48017E765E76DFF0404D5276E27F078
:101E90000607276600E023661C27076084F8583091
:101EA0002068904201D1334600E00346834215D0BA
:101EB000A5B1052D12D0092D10D0E36D43F4801388
:101EC000E365904200D13046C0688001AED5E06D38
:101ED00020F4005040F48050E065A7E7C26892010A
:101EE00005D5E26D22F4005242F48052E265826828
:101EF000044B1A40121D826098E700000003005056
:101F000000010050C0FFFF7F10B590F82530002180
:101F10000122022B03D00421C163012122E00368C6
:101F20001C6824F00E041C60836C1C6824F480740C
:101F30001C6003681C6824F001041C6090F84430A5
:101F4000046C03F01F0302FA03F36360D0E9133457
:101F50005C60436D33B11C6824F480741C60D0E96C
:101F600016345C6080F82520002280F82420084682
:101F700010BD70B590F82520002401212346022AC7
:101F800007D00422C26380F8251080F82430012491
:101F900029E00268156825F00E05156002681568CD
:101FA00025F001051560826C156825F480751560B3
:101FB00090F84420056C02F01F0201FA02F26A60F8
:101FC000D0E913255560426D32B1156825F480754E
:101FD0001560D0E91625556080F8251080F824306A
:101FE000816B01B18847204670BD000070B5044682
:101FF00000F0FCF80546601C02D004484068044428
:1020000000F0F4F8401BA042FAD370BD700000202D
:102010002DE9FC4FDFF8A0A1002301250AF1040BF4
:1020200003244FF00F0C0BF1040EBDE005FA03F68C
:1020300032406FD04F68012F05D0022F03D0112FEF
:1020400001D0122F17D1D0F808905F0004FA07F8DA
:1020500029EA08090097D1F80C8008FA07F848EA3D
:102060000908C0F808804768B7430E79C6F3001620
:102070009E403E434660C6684FEA430804FA08F7AC
:10208000BE4301978F6807FA08F73743C7604E6869
:10209000022E01D0122E13D1DE0800EB8606009628
:1020A000366A5F07FF0E0CFA07F926EA0906D1F82F
:1020B000109009FA07F949EA0609009EC6F820902F
:1020C0000668019FBE430F7907F0030707FA08F778
:1020D000374307604E68F60065D5384E376E47F0D7
:1020E00001073766366E23F0030706F001060096F7
:1020F000334E3E44B146B6689F074FEA17780CFA54
:1021000008F7BE43B0F1904F05D02E4FB84204D12E
:10211000012717E047E0002714E02B4FB84201D118
:1021200002270FE0294FB84201D103270AE0284FC8
:10213000B84201D1042705E0264FB84201D1052756
:1021400000E0062707FA08F73743C9F80870DAF8FD
:1021500000605746D1F8048096435FEAC83800D53E
:1021600016433E60DBF800605F46D1F8048096437A
:102170005FEA883800D516433E60DEF80060774697
:10218000D1F8048096435FEAC82800D516433E6024
:10219000094F0C373E68D1F8048096435FEA8828DF
:1021A00000D516433E605B1C0A6832FA03F67FF4E2
:1021B0003DAFBDE8FC8F000000040140001002406C
:1021C000000001400004004800080048000C0048DE
:1021D00000100048001400480069084000D00120A9
:1021E00070470AB181617047816270470148806819
:1021F0007047000070000020024881684268114466
:10220000816070477000002010B50024032000F0AA
:1022100073F80F2000F008F808B1012401E000F085
:1022200025F8204610BD000070B50E4E054600246E
:10223000706898B14FF47A71B1FBF0F00A490968FF
:10224000B1FBF0F000F0E6FE40B9102D06D20022FE
:102250002946501E00F030F8356000E00124204689
:1022600070BD0000700000207C0000200A4882B091
:10227000016E41F001010166016E01F00101009162
:10228000816D41F080518165806D00F0805000903B
:1022900002B000F0A1B8000000100240002809DBE5
:1022A00000F01F02012191404009800000F1E02070
:1022B000C0F8001170470000F0B40E4B1B680C46CC
:1022C000C3F30223C3F10705042D00D90425191D0A
:1022D000072901D2002300E0DB1E012606FA05F1E2
:1022E000491E214099409E40761E16403143F0BC65
:1022F00003F035BF0CED00E0064900F00702086866
:102300004FF6FF03184040EA0220034A10430860DA
:10231000704700000CED00E00000FA052B492C4B43
:102320000A6832214A432B4940B1B0F5007F086862
:1023300029D020F4C06040F480602CE00868C0F32D
:102340004120022804D051F8800F20F4807022E050
:10235000D1F8800020F48070C1F88000086820F473
:10236000C06040F400700860B2FBF3F0401C00E075
:10237000401E4A69520501D50028F9D14869400537
:102380000AD503207047C0F34120022806D051F837
:10239000800F40F48070086000207047D1F8800002
:1023A00040F48070C1F88000086820F4C06040F4F8
:1023B00000700860B2FBF3F0401C00E0401E4A6968
:1023C0005205DBD50028F9D1D8E700007C000020B9
:1023D00040420F00007000400248816841F4804193
:1023E00081607047007000402DE9F84304460068A2
:1023F00000269D4D00035ED5A86D0027C00008D4BF
:10240000A86D40F08050A865A86D012700F08050AD
:102410000090DFF85892D9F8001041F48071C9F8A3
:102420000010FFF7E3FE804606E000BFFFF7DEFE88
:10243000A0EB080002282BD8D9F80000C005F5D57C
:10244000D5F8900010F4407014D0216C814211D066
:10245000D5F89000D5F8901020F4407041F4803108
:10246000C5F89010D5F8901021F48031C5F890107F
:10247000C5F89000C00711D0FFF7B8FE804641F2C2
:10248000883907E0FFF7B2FEA0EB0801494501D902
:1024900003260BE0D5F890008007F3D5D5F890001F
:1024A000216C20F440700843C5F890001FB1A86D5E
:1024B00020F08050A8652078C00707D0D5F88800A4
:1024C000616820F003000843C5F888002078800781
:1024D00007D5D5F88800A16820F00C000843C5F89E
:1024E00088002078400707D5D5F88800E16820F0FB
:1024F00030000843C5F888002078000707D5D5F8D4
:102500008800216920F0C0000843C5F888002078C1
:10251000800607D5D5F88800616920F4406008433B
:10252000C5F888002078400607D5D5F88800A1694D
:1025300020F440500843C5F888002078000607D5ED
:10254000D5F88800E16920F440400843C5F88800C8
:102550002088C00507D5D5F88800216A20F44030CE
:102560000843C5F888002088800507D5D5F888007D
:10257000616A20F440200843C5F88800208840059F
:102580000FD5D5F88800A16A20F440100843C5F89B
:102590008800A06AB0F5801F03D1E86840F480107D
:1025A000E860208800050FD5D5F88800E16A20F49E
:1025B00040000843C5F88800E06AB0F5800F03D1F9
:1025C000E86840F48010E8602088C0040FD5D5F892
:1025D0008800216B20F040700843C5F88800206B0C
:1025E000B0F1807F03D1E86840F48010E860208873
:1025F0004FF0006180040ED5D5F88800626B20F0A2
:1026000040601043C5F88800606B884203D1E868D9
:1026100040F48010E860208840040ED5D5F888008A
:10262000A26B20F040601043C5F88800A06B884280
:1026300003D1E86840F48010E860208800040FD5DA
:10264000D5F88800E16B20F040500843C5F88800B9
:10265000E06BB0F1805F03D1E86840F48030E8605F
:102660003046BDE8F88300000010024000700040D2
:102670002DE9F0470E4605004FF0000725D0DFF8A2
:10268000AC81D8F8000000F00F00B0420CD2D8F8AE
:10269000001021F00F013143C8F80010D8F80000F5
:1026A00000F00F00B04210D12968614CC80741F218
:1026B000883A5AD06868DFF87C91032808D002284D
:1026C00020682DD0400500282CDB0120BDE8F087D4
:1026D00020688001F9D5E06800F00302E068C0F3EB
:1026E0000310401C032A19D0534A00BFB2FBF0F07C
:1026F000E268C2F306225043E268C2F34162521C10
:102700005200B0FBF2F0484517D9A06810F0F00F66
:102710000CD0880711D5A86840B10EE0474AE5E71C
:102720008003D0E700F0B6F8484506D9A06820F04D
:10273000F00040F08000A0608027A068696820F069
:1027400003000843A060FFF751FD814606E000BF8B
:10275000FFF74CFDA0EB090151453AD8A068696824
:1027600000F00C00B0EB810FF2D12868810714D57E
:10277000400703D5A06840F4E060A0602878000717
:1027800005D5A06820F4605040F4E060A060A06827
:10279000A96820F0F000084304E0802F03D1A0686E
:1027A00020F0F000A060D8F80010404601F00F01C2
:1027B000B14216D9016821F00F0131430160FFF7E2
:1027C00015FD074607E000BFFFF710FDC11B51458F
:1027D00001D903207AE7D8F8000000F00F00B042DA
:1027E000F2D12878400705D5A068E96820F4E060B8
:1027F0000843A0602878000706D5A068296920F45E
:10280000605040EAC100A06000F044F8A1680C4AA2
:10281000C1F30311515C01F01F01C8400949086070
:1028200009480068BDE8F047FFF7FEBC0020024001
:102830000010024000B4C4040024F40000366E010D
:10284000228200087C000020700000200548064914
:1028500000688968054AC1F30221515C01F01F013B
:10286000C84070477C0000200010024032820008FF
:102870000548064900688968054AC1F3C221515CD0
:1028800001F01F01C84070477C000020001002408A
:1028900032820008184910B58868C0F381021748D1
:1028A000012A0BD08A68164BC2F38102022A06D095
:1028B0008A68C2F38102032A03D0002010BD1846A3
:1028C00010BDCA6802F00304CA68C2F30312521CA6
:1028D000032C02D0B0FBF2F001E0B3FBF2F0CA68C7
:1028E000C968C2F306225043C1F34161491C490043
:1028F000B0FBF1F010BD0000001002400024F40015
:1029000000366E012DE9F84304007AD02078FA4DA4
:10291000C00747D0A868E96800F00C0001F0030187
:102920000C2802D0082817D001E0032914D06068D1
:10293000B0F5803F17D0B0F5A02F286817D020F44D
:1029400080302860286820F4802028606068E0B12A
:10295000FFF74CFC064614E02868800322D5606827
:102960000028D2D01EE0286840F48030EDE740F423
:1029700080202860F7E700BFFFF738FC801B642841
:1029800070D828688003F7D50CE0FFF72FFC0646C7
:1029900005E000BFFFF72AFC801B6428F0D82868F8
:1029A0008003F7D4207880074CD5A868E96800F048
:1029B0000C0001F003010C2802D004280DD001E026
:1029C00002290AD0E068002828682BD040F48070E3
:1029D0002860FFF70BFC064619E02868400502D581
:1029E000E068002891D06868217C20F0FE4040EA31
:1029F00001606860C1480068FFF716FC002800D13C
:102A000020E076E1FFF7F2FB801B0228B8D82868A7
:102A10004005F7D56868217C20F0FE4040EA01605F
:102A200068600FE020F480702860FFF7DFFB064647
:102A300005E000BFFFF7DAFB801B0228A0D828685A
:102A40004005F7D42078000729D560690028D5F81B
:102A5000940013D040F00100C5F89400FFF7C6FBC6
:102A6000064606E090E000BFFFF7C0FB801B02288F
:102A700086D8D5F894008007F6D510E020F0010044
:102A8000C5F89400FFF7B2FB064604E0FFF7AEFB83
:102A9000801B022878D8D5F894008007F6D42078D7
:102AA000400761D5A86D0026C00008D4A86D40F08D
:102AB0008050A865A86D012600F0805000909048D5
:102AC0000168C90511D40168804641F48071016034
:102AD000FFF78CFB074604E0FFF788FBC01B0228CA
:102AE00052D8D8F80000C005F6D5A068012815D046
:102AF0000528D5F8900016D020F00100C5F8900008
:102B0000D5F8900020F00400C5F89000A06841F2CC
:102B10008838B8B1FFF76AFB07460EE0D5F8900099
:102B200040F00100F0E740F00400C5F89000F5E740
:102B3000FFF75CFBC11B414526D8D5F89000800704
:102B4000F6D50CE0FFF752FB074604E0FFF74EFB1B
:102B5000C11B414518D8D5F890008007F6D41EB1A6
:102B6000A86D20F08050A8652078800629D5A0693E
:102B70000028D5F8980013D040F00100C5F898005F
:102B8000FFF734FB064606E077E000BFFFF72EFBB9
:102B9000801B022877D8D5F898008007F6D510E07A
:102BA00020F00100C5F89800FFF720FB064604E07E
:102BB000FFF71CFB801B022865D8D5F8980080071A
:102BC000F6D4E069F0B3A968C1F38101032961D0AB
:102BD0000228286820F0807028600BD0E86820F078
:102BE0000300E860E86847490840E860FFF7FEFA3C
:102BF00004464BE0FFF7FAFA064604E0FFF7F6FA60
:102C0000801B02283FD828688001F7D4F4E9080126
:102C10006FF00F0202EB01110843218A52044908A8
:102C200002EB4151A26841EA02210843217D4FF0A5
:102C30007E42490802EB41610843217B40EAC160C2
:102C4000E96800E062E0304A11400843E860286823
:102C500040F080702860E86840F08070E860FFF71E
:102C6000C5FA044605E000BFFFF7C0FA001B0228C2
:102C700009D828688001F7D548E004E0FFF7B6FAE4
:102C8000001B022802D90320BDE8F88328688001D0
:102C9000F4D43BE00128F7D0E868226A00F0030191
:102CA000914226D1616A00F0F00209011039914287
:102CB0001FD1A26A00F4FE41B1EB022F19D194F8A2
:102CC0002C2000F07841B1EBC26F12D1218E00F4BC
:102CD000C00249084905A1F50011914209D194F8B3
:102CE000341000F0C06049084906A1F1007181422A
:102CF0000CD00120C8E70000001002407000002046
:102D000000700040FFFFEEFE0C809F010020BBE73B
:102D10000F4810B50B4601680E480140080CD870EA
:102D2000C1F304245C7001F03F049C70C1F3423194
:102D3000197052B902F00BFAD870587802F007FAFD
:102D40005870987802F003FA9870002010BD0000C7
:102D5000042800403FFFFF00144810B500680B46F0
:102D60004860124808300068C0F30E0088600F48C1
:102D7000083801680E480140C1F305401870C1F3DE
:102D800006245C7001F07F049C70890DD97052B9E3
:102D900002F0DDF91870587802F0D9F95870987877
:102DA00002F0D5F99870002010BD000008280040FE
:102DB0007F7F7F0070B504004FF001003ED094F893
:102DC000250028B9002084F82400204600F03CF8B3
:102DD000022084F825001A4ECA203060532030604B
:102DE000204602F0C9F910BB154D0C3D2868154965
:102DF0000840286028686168A26908432169114376
:102E0000084328602189E06840EA01400C491439F0
:102E10000860204602F0D6F948B9D4E907211143E9
:102E200062692B6823F060431A4311432960FF2134
:102E30003160002802D1012184F8251070BD000006
:102E400024280040BFFF8FFB00680549884205D158
:102E5000044850F8901F41F40041016070470000A1
:102E600000280040001002402DE9F041044690F88F
:102E700024000B4601281AD0012684F82460022081
:102E800084F82500B2B19878D97840EA014558789D
:102E90001978000240EA413005431B4FCA203860D0
:102EA00053203860204602F067F9D8B122E00220B2
:102EB000BDE8F0815878C10603D500F0EF000A3074
:102EC0005870D87802F04CF90504587802F048F9A7
:102ED00045EA0025987802F043F90543187845EA59
:102EE0004035DAE7094805400748203805602046A4
:102EF00002F068F9FF21396008B984F825600021E3
:102F000084F82410D4E70000242800403FFFFF008D
:102F10002DE9F047054690F8240017460C46012895
:102F200014D04FF0010985F82490022085F825007F
:102F3000DFF8A480CA21C8F800105321C8F8001097
:102F4000284602F019F9002618B127E00220BDE852
:102F5000F087214B0C3B18684FEA40601FB30028F4
:102F600000DBE670A0782178E27840EA01406178E1
:102F7000090241EA82510843184908401649243998
:102F80000860186820F480201860D4E90301084321
:102F9000196808431860284602F014F9FF22C8F89F
:102FA0000020A0B115E0002800DBE670207802F0D8
:102FB000D7F80704607802F0D3F847EA0027A07832
:102FC00002F0CEF80743E07847EA8050D4E785F86E
:102FD000259085F82460BAE7242800407F7F7F0091
:102FE00070B50B4D286820F020002860FFF7FEF830
:102FF00004464FF47A7606E0FFF7F8F8001BB0427B
:1030000001D9032070BD28688006F5D5002070BD69
:103010000C28004010B5401EB0F1807F01D3012084
:1030200010BD4FF0E02460610F21601703F097F8A6
:103030000020A06107202061002010BD704770476C
:1030400070470000F0B590F83C20012A4AD00122D8
:1030500080F83C20CA688B6822F440721A434B689F
:1030600022F480621A430B6822F400621A430B694F
:1030700022F480521A434B6922F400521A430B6B1C
:1030800022F480421A430B8B22F4702242EA03425C
:10309000154C03680026154DA34201D0AB4203D165
:1030A000CF6922F080523A43A34201D0AB4214D1FF
:1030B0000F8D22F4700242EA07520F6A22F08072EA
:1030C0003A434F6A22F000723A43A34201D0AB4226
:1030D00003D1C96A22F000520A435A6480F83C6066
:1030E0000020F0BD0220F0BD002C01400034014062
:1030F0007047704770470000F0B590F83C20012AF7
:103100003AD0012580F83C50022280F83D20036827
:103110005A689C68194E1A4FB34201D0BB4204D181
:1031200022F4700C4A6842EA0C02DFF858C002EA46
:103130000C02D1F800C04CEA020CC3F804C00268CB
:10314000B2420DD0B2F1804F0AD00F4B9A4207D055
:103150000E4B9A4204D0BA4202D00D4B9A4204D18F
:10316000896824F080031943916080F83D50002164
:1031700080F83C100846F0BD0220F0BD002C014054
:10318000003401408FFFFFFD0004004000080040B4
:1031900000400140704710B5040003D094F83D0092
:1031A00010B107E0012010BD002084F83C0020464B
:1031B00000F022F8022084F83D00211D206802F072
:1031C00099F8012084F8480084F83E0084F83F0014
:1031D00084F8400084F8410084F8420084F84300F9
:1031E00084F8440084F8450084F8460084F84700D9
:1031F00084F83D00002010BD30B587B0044614218E
:103200006846FDF7E4F940482368404983420ED1FF
:10321000086E40F400600866086E002200F400604A
:10322000059011461820FFF747F818204AE00022C1
:1032300002244FF09040B3F1804F22D0344DAB4286
:1032400044D18B6D43F002038B658B6D03F0020359
:103250000593CB6C43F00103CB64C96C01F0010111
:10326000059180210091CDE90142CDE90324694611
:10327000FEF7CEFE002211461D20FFF71DF81D208F
:1032800020E08B6D43F001038B658B6D03F0010330
:103290000593CB6C43F00103CB64C96C01F00101D1
:1032A00005914FF400410091CDE901420121CDE9A2
:1032B00003216946FEF7ACFE002211461C20FEF7F2
:1032C000FBFF1C20FEF7EAFF07B030BD1148834228
:1032D0000ED1886D40F004008865886D002200F0F2
:1032E0000400059011461E20FEF7E6FF1E20E9E7C8
:1032F00009488342E8D1086E40F400300866086E41
:1033000000F400300590DFE7002C0140001002407F
:1033100000040040000800400044014090F83D10C7
:10332000012901D001207047022180F83D10016879
:10333000CA6842F00102CA600068104988420ED093
:10334000B0F1804F0BD00E49884208D00D49884219
:1033500005D00D49884202D00C49884207D18168C6
:103360000B4A1140062906D0B1F5803F03D0016811
:1033700041F001010160002070470000002C014075
:1033800000040040000800400034014000400140BB
:103390000700010070B5044690F83C00012814D0E5
:1033A000012584F83C50022084F83D002268906892
:1033B000344B184020F47F4090600868702827D074
:1033C00010DC10F00F0F03D04AE04FF0020070BD88
:1033D0004FEA2012072A43D2DFE802F05050505043
:1033E00048313900284BC21A984247D009DCB0F561
:1033F000805F35D0B0F5005F15D0B0F1101F2FD130
:103400003CE0102A3AD0202A38D0502A28D135E082
:10341000CB68D1E90121206801F0D1FF20688168E3
:1034200041F0770109E0CB68D1E90121206801F082
:10343000C6FF2068816841F48041816010E0CA685D
:103440004968206802F066F95021206806E0CA68E1
:103450004968206802F0A6F96021206801F0BAFFEF
:1034600084F83D50002084F83C0070BDCA6849686B
:10347000206802F04FF940212068EFE722680146FA
:103480001046EBE788FFCEFF2000100070B52DED51
:10349000048B007F022855D12C480068416A2C4CCF
:1034A00089B20022E18142622A48B0FBF1F5E5626F
:1034B000606B6421484303F02CFB41EC190B206B3B
:1034C00003F027FB41EC180B680003F039FB9FED7C
:1034D000221B53EC112B03F083FB53EC182B03F04E
:1034E0007FFB53EC192B03F08FF941EC100B84EDAB
:1034F000100B207801280CD194ED121B51EC100B0D
:1035000053EC112B03F06AFC03D294ED100B84ED05
:10351000120B207870B994ED140B53EC102B94ED32
:10352000100B51EC100B03F059FC03D294ED100B6F
:1035300084ED140B0421BDEC048BBDE870400348FE
:1035400000F0C8B8BDEC048B70BD0000180200206C
:103550000800002040420F001F85EB51B81E0940B3
:103560002DE9F041054690F83C000C46012836D084
:10357000012085F83C008AB3042A42D02868082A32
:1035800051D0D4E90023E168066A26F48056066229
:10359000C669076A26F4407646EA03234FF6FF76AB
:1035A00006EA013123F4704319434FF4204627F40F
:1035B000204306EA02321A43C16102622868C169E7
:1035C00021F44061C1612868C169A26841EA022111
:1035D000C161002085F83C00BDE8F08101E00220D7
:1035E000FAE7D4E90012E368286802F0A5F8286831
:1035F000816921F00C01816128688169A268114309
:103600000FE0D4E90012E368286802F0DDF82868CA
:10361000816921F44061816128688169A26841EA79
:1036200002218161D5E7D4E90027267B016A21F4D4
:1036300080710162C169036A21F00301394321F0FD
:10364000F00731074FF4206647EA116123F4206345
:1036500006EA02221A43C16102622868C16921F0A8
:103660000C01C1612868C169A2681143B0E710B5B7
:10367000040003D094F83D0010B107E0012010BD14
:10368000002084F83C00204600F022F8022084F854
:103690003D00211D206801F02DFE012084F8480026
:1036A00084F83E0084F83F0084F8400084F841002C
:1036B00084F8420084F8430084F8440084F845000C
:1036C00084F8460084F8470084F83D00002010BDCF
:1036D0007047000010B5044679B1042912D00829BA
:1036E00015D00C2918D0102919D094F8430000BF28
:1036F00094F84720012817D114E094F83E0094F87C
:103700004420F7E794F83F0094F84520F2E794F856
:10371000400094F84620EDE794F84100E8E794F87B
:103720004200E5E7012A01D0012010BD022071B15D
:10373000042915D008291CD00C2948D0102949D0BB
:1037400084F8430084F847000C291BD145E084F835
:103750003E0084F844002068C26842F0020210E093
:1037600084F83F0084F845002068C26842F00402F3
:1037700007E084F8400084F846002068C26842F000
:103780000802C2600122206801F00CFE1549206881
:1037900088420ED0B0F1804F0BD01349884208D038
:1037A0001249884205D01249884202D01149884204
:1037B00007D18168104A1140062906D0B1F5803F33
:1037C00003D0016841F001010160002010BD84F8C0
:1037D0004100B7E784F84200B4E72068C26842F0CD
:1037E0001002CEE7002C0140000400400008004019
:1037F00000340140004001400700010070B504465C
:10380000006801694FF00005C943890715D4C168F4
:10381000C943890711D4E91E01610120207720687E
:1038200080698007204602D0FFF730FE04E000F0F8
:103830001DF9204600F0DCF9257720680169C943AD
:10384000490717D4C168C943490713D46FF004016D
:103850000161022020772068806910F4407F2046B3
:1038600002D0FFF713FE04E000F000F9204600F05C
:10387000BFF9257720680169C943090716D4C168D3
:10388000C943090712D46FF00801016104202077B1
:103890002068C0698007204602D0FFF7F7FD04E0EA
:1038A00000F0E4F8204600F0A3F9257720680169CC
:1038B000C943C90617D4C168C943C90613D46FF0F8
:1038C00010010161082020772068C06910F4407F52
:1038D000204602D0FFF7DAFD04E000F0C7F82046EA
:1038E00000F086F9257720680169C943C90708D126
:1038F000C168C943C90704D1891E0161204600F08F
:10390000F7F920680169C943090609D4C168C943A8
:10391000090605D46FF0800101612046FFF78FFB97
:1039200020680169C943C90509D4C168C9430906AA
:1039300005D46FF4807101612046FFF77FFB20689A
:103940000169C943490609D4C168C943490605D478
:103950006FF040010161204600F000FB2068016922
:10396000C943890609D4C168C943890605D46FF0E3
:10397000200101612046FFF763FB20680169C9430C
:10398000C90209D4C168C943C90205D46FF48011C2
:1039900001612046FFF7ADFB20680169C943890238
:1039A00009D4C168C943890205D46FF400110161CB
:1039B0002046FFF79DFB20680169C943490209D4ED
:1039C000C168C943490205D46FF4800101612046F2
:1039D000FFF790FB20680169C94309020BD4C16855
:1039E000C943090207D46FF4000101612046BDE814
:1039F0007040FFF7CFBB70BD70B586B00446142190
:103A00006846FCF7E4FD25680023164902220124DC
:103A10004FF09040B5F1804F14D0134EB5420FD106
:103A2000CD6C45F00105CD64C96C01F00101059133
:103A300040218DE80E00CDE903346946FEF7E8FA2F
:103A400006B070BDCD6C45F00105CD64C96C009227
:103A5000CDE9012301F00101CDE904410393694659
:103A6000ECE700000010024000440140704770B5D0
:103A7000044690F83C000D4601280BD0012084F844
:103A80003C000C2A45D007DC5AB1042A1BD0082A76
:103A900078D12CE0022070BD102A4ED0142A71D1AA
:103AA0005DE0206801F0A0FC2068816941F0080118
:103AB00081612068816921F0040181612068816948
:103AC0002A69114311E0206801F0DCFC206881695B
:103AD00041F4006181612068816921F48061816124
:103AE000206881692A6941EA022181614AE02068EF
:103AF00001F010FD2068C16941F00801C161206832
:103B0000C16921F00401C1612068C1692A691143BA
:103B100011E0206801F046FD2068C16941F40061B0
:103B2000C1612068C16921F48061C1612068C169F7
:103B30002A6941EA0221C16124E0206801F07AFD8E
:103B40002068016D41F0080101652068016D21F0D8
:103B5000040101652068016D2A69114311E02068A4
:103B600001F0A0FD2068016D41F40061016520684D
:103B7000016D21F4806101652068016D2A6941EAC7
:103B800002210165002084F83C0070BD10B50400DE
:103B900003D094F83D0010B107E0012010BD0020D3
:103BA00084F83C00204600F022F8022084F83D0012
:103BB000211D206801F09EFB012084F8480084F854
:103BC0003E0084F83F0084F8400084F8410084F807
:103BD000420084F8430084F8440084F8450084F8E7
:103BE000460084F8470084F83D00002010BD70476F
:103BF0007047000030B50446022269B1042912D092
:103C0000082917D00C291CD0102921D094F8430082
:103C1000012824D0012030BD94F83E000128F9D1BC
:103C200084F83E201DE094F83F000128F2D184F88A
:103C30003F2016E094F840000128EBD184F84020A2
:103C40000FE094F841000128E4D184F8412008E015
:103C500094F842000128DDD184F8422001E084F884
:103C600043200122206801F09DFB194B206819496F
:103C7000194A984209D0884207D0904205D0174D82
:103C8000A84202D0164DA84203D1456C45F4004528
:103C90004564206898420CD0B0F1804F09D0114B98
:103CA000984206D0104B984203D0884201D09042EF
:103CB00007D181680D4A1140062906D0B1F5803F31
:103CC00003D0016841F001010160002030BD000017
:103CD000002C0140003401400040014000440140FC
:103CE00000480140000400400008004007000100B7
:103CF0002DE9F041884900680968884276D1874CEF
:103D000000256088401C6080A088401C80B2A08094
:103D1000E188491CE1802189491C21810F2835D384
:103D2000A5807F4802F032FA84ED160B9FED7D1BD3
:103D300051EC100B53EC112B03F050F826D29FEDF1
:103D40007B0B53EC102B94ED160B51EC100B02F087
:103D50000BFF1BD277480078012817D19FED760B17
:103D600053EC102B94ED160B51EC100B02F038FFB6
:103D70009FED731B53EC112B03F066F89FED721B44
:103D800053EC112B02F02CFFC4E90E01E0880A2845
:103D90006FD36F4FE58001213846FEF71DFA5F4E65
:103DA0000221183630703846FEF716FA707004217A
:103DB0003846FEF711FAB07001214FF09040FEF73F
:103DC0000BFAF070A6F108010020DFF888E10F1D62
:103DD0000123321D11F800C0BCF1000F07D0BCF167
:103DE000010F0DD0BCF1020F2AD113E092E016F8BA
:103DF00000C0BCF1000F23D10B544EF820501FE03F
:103E000016F800C0BCF1000F37D14FF0020C01F8DA
:103E100000C015E016F800C0BCF1010F5EF820C02C
:103E200014D0BCF1460F05D3DFF8F0C00CF1280C1C
:103E30000CF800305EF820C00CF1010C4EF820C0E8
:103E400012F800C0BCF1010F19D02AE0BCF1460FF6
:103E500010D212F800C0BCF1000F07D0DFF8BCC0D0
:103E60000CF1240C0CF80030155406E013543D54AA
:103E700003E019E0BCF1C80FD6D30D54E0E717F802
:103E800000C00CF1010C0CF0FF0C07F800C0BCF1F5
:103E9000230F06D3DFF884C00CF1200C0CF800309F
:103EA0001554401C042895DB6088142800D36580D5
:103EB000208932282ED320784FF4FA62511001283D
:103EC00001D028B109E0A08988420BD90A3803E063
:103ED000A089904201D20A30A081A089904201D9E4
:103EE000A28103E080B2884200D2A1814FF08041DC
:103EF000A089C86202F024FE94ED0E1B53EC112B36
:103F000002F06EFE02F0D8FD134980B260810968AC
:103F100088632581BDE8F08164020020080000204C
:103F2000EC000020000000000000F03F0000000056
:103F300000000840020000200000000000C04240D5
:103F40000000000000803B407B14AE47E17A843FD4
:103F5000000400488C030020CC010020704790F83A
:103F60008010012918D0012180F880102421C0F888
:103F7000841050F8641B0A680B6823F001030B607F
:103F800022F000510022026050F8643C19602021A8
:103F900001620277104670470220704770477047F1
:103FA00070B5044690F8800001281DD0012084F8E7
:103FB00080002420C4F8840020680568026822F08C
:103FC000010202602068826822F060620A43826017
:103FD000204601F015FC206805602020C4F884000C
:103FE000002084F8800070BD022070BD70B50446CA
:103FF00090F8800001281DD0012084F88000242042
:10400000C4F8840020680568026822F0010202609A
:104010002068826822F060420A438260204601F0F4
:10402000EFFB206805602020C4F88400002084F89D
:10403000800070BD022070BD70477047704700005F
:104040002DE9F04103680446D86919689A6840F67A
:104050000F0528424FF0000509D186067ED501F0F4
:10406000200602F080573E4378D0216FFFE0924E49
:10407000924F16400F40374370D0C70709D0CF0585
:1040800007D501271F62D4F88C3043F00103C4F830
:104090008C3083070AD5D30708D0276802233B62F8
:1040A000D4F88C3043F00403C4F88C3043070AD5AD
:1040B000D30708D0276804233B62D4F88C3043F040
:1040C0000203C4F88C3003070CD501F020033343FE
:1040D00008D0266808233362D4F88C3043F00803F4
:1040E000C4F88C3003050BD54B0109D526684FF475
:1040F00000633362D4F88C3043F02003C4F88C3072
:10410000D4F88C30002B34D0800609D501F0200083
:1041100002F08051084303D0216F09B1204688473F
:10412000D4F88C0021688968490602D410F0280F61
:1041300021D0204601F024FC20688168490615D56D
:10414000816821F040018160E06F78B15C49816352
:10415000E06FFDF70EFF00280BD000E011E0E06FEC
:10416000816B00E02046BDE8F04108472046FFF79C
:1041700065FFBDE8F0812046FFF760FFC4F88C5072
:10418000F7E7E76E2026012F5CD1C7065AD5CF0688
:1041900058D5102018622068816849062FD5E26F33
:1041A000116849680904090CE3D0B4F85C308B420B
:1041B000DFD9A4F85E1011680968890618D401686F
:1041C00021F4807101602068816821F00101816023
:1041D0002068816821F040018160C4F88860E5664C
:1041E0002068016821F010010160E06FFDF78CFE8E
:1041F000B4F85C00B4F85E10401A81B21EE0B4F866
:104200005C10B4F85E20891AB4F85E2089B2002AE6
:10421000AFD00029ADD0026822F49072026020680D
:104220008268254BDB431A408260C4F88860E566EB
:1042300025672068026822F0100202602046FFF71E
:10424000ADFE96E7C70209D5570207D54FF4801097
:1042500018622046BDE8F041FFF7EFBE07060AD519
:1042600001F0800702F40002174304D0616F0029B7
:104270007FF478AF7DE742060CD54A060AD5196867
:10428000204621F040011960C4F88460656700F0A1
:10429000BFF86EE7020206D54A0004D52046BDE805
:1042A000F041FFF7C9BEC001CBD50029C9DA2046CD
:1042B000BDE8F041FFF773BE0100001020010004CB
:1042C0006D59000810B5040003D0D4F8840010B173
:1042D00007E0012010BD002084F88000204600F097
:1042E00027F82420C4F884002068016821F0010127
:1042F0000160204601F01CFD0128EBD0A06A10B13E
:10430000204601F09FFA2068416821F49041416005
:104310002068816821F02A0181602068016841F0ED
:10432000010101602046BDE8104001F0EFBA000035
:1043300010B586B0044614216846FCF748F91749C1
:104340002068884227D11648016E41F480410166F9
:10435000016E01F480410591C16C41F00101C1641D
:10436000C06C694600F0010005904FF4C0600090F9
:1043700002200190002002900390072004904FF04B
:104380009040FDF745FE002211462520FDF794FFE1
:104390002520FDF783FF06B010BD00000038014066
:1043A0000010024010B4D0F88830202B1BD1B9B1D6
:1043B000B2B190F88030012B15D0012380F8803005
:1043C0000023C366094C0368A34206D05C6824023C
:1043D00003D51C6844F080641C6010BC01F0E2BD91
:1043E000012010BC70470220FBE700000080004065
:1043F00010B5012204490548FFF7D4FFBDE810407D
:104400000149D82000F09AB89C030020FC0200204B
:104410007047FEE700B585B014216846FCF7D7F871
:104420004FF6FF70009000200321CDE902010190BA
:1044300069460248FDF7ECFD05B000BD00080048E4
:1044400000B585B014216846FCF7C1F84FF6FF703F
:104450000090012001900320039000200290694603
:104460000248FDF7D5FD05B000BD0000000800487A
:1044700070B5002406462146204600F003F900F0FE
:1044800041F94FF49635304600F010F9641CAC4207
:10449000F9D370BD30B587B014216846FCF797F8A2
:1044A0001E48C16C41F00401C164C16C01F00401FB
:1044B0000591C16C41F00101C164C16C01F00101C1
:1044C0000591C16C41F00201C164C06C012500F08E
:1044D000020005904FF44870CDE9000500240394D4
:1044E000694602940E48FDF793FD2802039400905C
:1044F000CDE901544FF0904469462046FDF788FD10
:10450000FFF79EFFA06940F48070A0610448183056
:10451000016841F40871016007B030BD001002402D
:1045200000040048203AD2B2034B02EB420203EBF4
:10453000021200F019B800002A700008F0B50E460B
:104540000746002540F23F1407E021463846FFF7B2
:10455000E9FF103C6D1CA4B2761C3278002A01D011
:10456000142DF2D3F0BD00002DE9F04791468A46A4
:104570000026044600F086F8DFF84080012700BFDF
:1045800000F0C0F85FF0000539F8160007FA05F1F1
:104590000842404601D1408800E0008800F086F8DB
:1045A0006D1C102DF0D3641CE4B25146204600F07F
:1045B00069F8761C182EE3D3BDE8F0876A00002066
:1045C00010B5FFF767FF002000F014F8084CA0803A
:1045D000A088A0F50241303906D000F0B7FC0020D9
:1045E00000F008F8A08010BD00F027FCF7E70000FD
:1045F0006A00002070B51D490A6842F400720A6022
:104600000A6842F480720A60184C103C226842F03A
:1046100020022260164A1060086840F020000860FE
:1046200000BF00BF00BF206840F02000206020686D
:1046300040F480702060FFF7EDFE4FF09041886AF3
:1046400040F48070886200BF00BF00BF0848001FB0
:10465000006885B2886940F480708861FFF7F0FED9
:10466000206840F400702060284670BD280400488F
:104670001408004801B5BDF800000149488008BD94
:104680006A00002010B50C460146202000F068F8B2
:104690002146BDE81040212000F062B801B5BDF808
:1046A00000000149088008BD6A000020134A116813
:1046B00041F400711160114910390B6843F48073A3
:1046C0000B600B6843F020030B600D4B1860106803
:1046D00040F02000106000BF00BF00BF086840F03D
:1046E00020000860086840F48070086000BF00BFC8
:1046F00000BF086840F40070086070472804004854
:10470000140800481449086840F4007008600868FC
:1047100040F48070086010481038026842F02002AF
:1047200002600E4B22221A600A6842F020020A60E0
:1047300000BF00BF00BF016841F0200101600168B7
:1047400041F48071016000BF00BF00BF016841F407
:1047500000710160704700002804004814080048F8
:10476000184B10B51A6842F400721A601A6842F4C5
:1047700080721A60134A103A146844F020041460DE
:10478000114C2060186840F02000186000BF00BF86
:1047900000BF106840F020001060106840F4807086
:1047A00010602160186840F02000186000BF00BF52
:1047B00000BF106840F020001060106840F4807066
:1047C000106010BD280400481408004870B50D4D55
:1047D0000446012204212846FDF703FD0A4E01226A
:1047E0004FF6FF713046FDF7FCFC210200223046F7
:1047F000FDF7F7FC2846BDE8704000220421FDF7D4
:10480000F0BC0000000C00480008004800EB8100EC
:10481000006E00F0F84070478068C0F3C000704739
:104820008068C0F3800070478068C0F380007047E4
:10483000042303EAD15310B518444369C1F304516A
:1048400007248C40A3438A401343436110BD00EB0F
:104850008100016E21F000411143016670470000A4
:1048600030B58BB0002408940994202168460A943E
:10487000FBF7ADFE1C484FF0A041042501604FF44A
:104880000031C0E90114C4600461C0E90545047742
:1048900044770121016280F82440C462046380F8F7
:1048A0003840C46380F84040FDF764F908B1FCF774
:1048B000DDFE08A90C480894FCF7DAFE08B1FCF705
:1048C000D5FE0A4800900620CDE901047F2005941A
:1048D000CDE9030569460448FCF736FF002801D0FE
:1048E000FCF7C4FE0BB030BD800000200008302E65
:1048F00030B589B020216846FBF769FE1948184990
:10490000002401604902C0E90114C4600425046167
:10491000C0E90545047744770121016280F824400D
:10492000C462046380F83840C46380F84040FDF7F7
:1049300021F908B1FCF79AFE0B4800900620CDE95A
:1049400001047F200594CDE9030569460548FCF77D
:10495000FBFE002801D0FCF789FE09B030BD000045
:1049600000010050EC0000200080F03E2DE9F04FE7
:1049700087B014216846FBF72AFE4348C16C41F01A
:104980000401C164C16C01F004010591C16C41F0E6
:104990002001C164C16C01F020010591C16C41F09E
:1049A0000101C164C16C01F001010591C16C41F0CC
:1049B0000201C164C16C01F002010591C16C41F0BA
:1049C0000801C164C06CDFF8C48000F008000590E5
:1049D00001224FF473414046FDF703FC002240F6EC
:1049E000FF414046FDF7FDFB4FF480764FF09049C4
:1049F000002231464846FDF7F4FBDFF894A0002280
:104A000004215046FDF7EDFBDFF888B04FF47877CE
:104A1000002239465846FDF7E4FB4FF6FF70009040
:104A200001250024CDE90154694640460394FDF771
:104A3000EFFACDE90054694648460295FDF7E8FAD9
:104A400007208DE8310069465846FDF7E1FA0096E7
:104A5000CDE90154694648460394FDF7D9FA04208C
:104A60000090CDE90154694650460394FDF7D0FA11
:104A70000097CDE90154694658460394FDF7C8FAFA
:104A800007B0BDE8F08F00000010024000080048A9
:104A9000000C00480004004810B586B01421684698
:104AA000FBF795FD214800241F490594C0E9001437
:104AB0007D21816041F27071C0E903144FF08041A3
:104AC0004461C0E906410462FEF774F908B1FCF7DD
:104AD000CDFD23208DF8000058208DF801003020F6
:104AE0008DF8020001940394012269460F48049452
:104AF000FEF70EFA08B1FCF7B9FD01208DF814009D
:104B00008DF8150002208DF8160021208DF8170071
:104B1000012205A90548FEF7A7F9002801D0FCF7F6
:104B2000A5FD06B010BD000000280040580100207F
:104B300010B594B01C210DA8FBF749FD342168463F
:104B4000FBF745FD1F481E490024016040F21F315C
:104B5000C0E901146321C0E9031444618461FEF7D4
:104B60001AFB08B1FCF782FD1648FFF70FF808B1F1
:104B7000FCF77CFD6020CDE90D040F941094119496
:104B8000129400220DA90F481394FEF770FF08B18C
:104B9000FCF76CFD00944FF40050CDE90440019403
:104BA000029403940694694606480C94FEF74AFA68
:104BB00008B1FCF75BFD0348FEF71EFF14B010BD03
:104BC00000440140B002002010B588B0002418480D
:104BD0000594069403940494009401941349029458
:104BE00001604F21C0E9011440F2E731C0E903142C
:104BF00044618461FEF7CFFA08B1FCF737FD4FF44A
:104C00008050039003A90A48FEF7C4FB08B1FCF7E3
:104C10002DFD00940194694605480294FEF76CFA54
:104C2000002801D0FCF722FD08B010BD002C014087
:104C30008001002010B58EB00024079408940994D8
:104C40000A940B940C941C2168460D94FBF7BFFC4E
:104C50001D484FF0804101600921C0E9011440F274
:104C6000E731C0E903148461FEF795FA08B1FCF757
:104C7000FDFC4FF48050079007A91348FEF78AFB0C
:104C800008B1FCF7F3FC1048FEF780FF08B1FCF711
:104C9000EDFC0B940BA90C480D94FEF72DFA08B10E
:104CA000FCF7E4FC6020CDE900040294042269468C
:104CB00005480494FEF7DBFE08B1FCF7D7FC024878
:104CC000FEF79AFE0EB010BDCC01002010B58CB0DE
:104CD00000240594224804940694079408940A94A6
:104CE00009940094019402941C49039401604F219B
:104CF000C0E9011442F20F71C0E903148461FEF7A8
:104D00004AFA08B1FCF7B2FC4FF48050049004A9B1
:104D10001348FEF73FFB08B1FCF7A8FC1048FEF76C
:104D2000A6FC08B1FCF7A2FC089408A90C480A9458
:104D3000FEF7E2F908B1FCF799FC0120CDE900404B
:104D400002940422694606480394FEF709FC0028F1
:104D500001D0FCF78BFC0CB010BD0000000400403B
:104D60001802002010B588B0002417480094019460
:104D700002940394049405941249069401604F210F
:104D8000C0E9011440F2E731C0E903148461FEF781
:104D900002FA08B1FCF76AFC4FF4805000906946B3
:104DA0000948FEF7F7FA08B1FCF760FC049404A97F
:104DB00005480694FEF7A0F9002801D0FCF756FC40
:104DC00008B010BD0008004064020020184810B56B
:104DD000164901604FF416514160002181600C2298
:104DE000C160C0E904128161C161016241628162F6
:104DF000FFF768FA08B1FCF739FC00210C48FFF70F
:104E0000F5F808B1FCF732FC00210948FFF7C8F8B3
:104E100008B1FCF72BFC0648FFF7A1F8002803D0E7
:104E2000BDE81040FCF722BC10BD00000038014076
:104E3000FC020020FEE7FEE7704730B501210020AC
:104E4000FFF78EFC4FF47A70FCF702FC0021012082
:104E5000FFF786FC41F290711020FFF781FC4FF4C0
:104E60001C516020FFF77CFC01216120FFF778FCDA
:104E700002214620FFF774FC48F210011320FFF7CF
:104E80006FFC48F2FE011220FFF76AFC4FF4A061AC
:104E90000220FFF765FC41F230010320FFF760FCC0
:104EA00040F2033421463020FFF75AFC21463120DE
:104EB000FFF756FC21463220FFF752FCE51E29463B
:104EC0003320FFF74DFC03213420FFF749FC214636
:104ED0003520FFF745FC14213620FFF741FC214621
:104EE0003720FFF73DFC21463820FFF739FC2146EB
:104EF0003920FFF735FC29463A20FFF731FC032122
:104F00003B20FFF72DFC21463C20FFF729FC4FF406
:104F1000A0513D20FFF724FC4FF400719220FFF7D1
:104F20001FFC21469320FFF71BFC40F60D0190204B
:104F3000FFF716FC41F218010320FFF711FCBDE852
:104F4000304040F273110720FFF70ABC10B543F25E
:104F50000801E320FFF704FC1221E720FFF700FC23
:104F600041F23121EF20FFF7FBFB00210120FFF789
:104F7000F7FB4FF4E0610220FFF7F2FB41F2300152
:104F80000320FFF7EDFB00210420FFF7E9FB40F2CF
:104F900007210820FFF7E4FB00210920FFF7E0FBD1
:104FA00000210A20FFF7DCFB00210C20FFF7D8FBD3
:104FB00000210D20FFF7D4FB00210F20FFF7D0FBCD
:104FC00000211020FFF7CCFB07211120FFF7C8FBC1
:104FD00000211220FFF7C4FB00211320FFF7C0FBC4
:104FE000C820FDF703F841F290611020FFF7B8FBED
:104FF00040F227211120FFF7B3FB3220FCF7F6FF28
:105000001D211220FFF7ACFB3220FCF7EFFF4FF41D
:1050100000611320FFF7A4FB14212920FFF7A0FB58
:105020000B212B20FFF79CFB3220FCF7DFFF002138
:105030002020FFF795FB00212120FFF791FB07219E
:105040003020FFF78DFB40F207713120FFF788FB1E
:1050500006213220FFF784FB40F204713520FFF770
:105060007FFB41F604713620FFF77AFB04213720DD
:10507000FFF776FB00213820FFF772FB40F2067144
:105080003920FFF76DFB40F201713C20FFF768FB10
:105090000F213D20FFF764FB00215020FFF760FB4C
:1050A000EF215120FFF75CFB00215220FFF758FB56
:1050B00040F23F115320FFF753FB4FF41C51602087
:1050C000FFF74EFB01216120FFF74AFB00216A2018
:1050D000FFF746FB00218020FFF742FB00218120E3
:1050E000FFF73EFB00218220FFF73AFB00218320DF
:1050F000FFF736FB00218420FFF732FB00218520DB
:10510000FFF72EFB10219020FFF72AFB00219220B1
:10511000FFF726FB03219320FFF722FB4FF4887152
:105120009520FFF71DFB00219720FFF719FB0021B9
:105130009820FFF715FB41F218010320FFF710FB41
:10514000BDE8104040F273110720FFF709BB0109C9
:1051500001EB810100F00F0000EB4100C0B270478D
:105160000022014602E00A39C9B2521C0A29FAD2C9
:10517000100741EA106070472DE9F047104C814656
:1051800000252068400618D4206840F08000206088
:10519000FDF72CF806464FF47A78032708E000BFA5
:1051A000FDF724F8801B404502D9032589F82570B6
:1051B0002068400601D4032DF2D12846BDE8F087CF
:1051C0000C2800402DE9F0410646134800250168EF
:1051D00021F080010160104C0C3420684FF003076F
:1051E000800607D43046FDF7FBFE90B186F82570A7
:1051F00003250EE0206820F0200020603046FDF7F7
:10520000EFFE10B186F825700325206840F02000DD
:1052100020602846BDE8F0810C2800407047FCF76C
:10522000EBBF000010B5A4B038216846FBF7CFF9FA
:1052300014211FA8FBF7CBF944210EA8FBF7C7F9EF
:105240004FF40070FDF76AF801200090000401900F
:1052500002200324CDE907041421CDE90A100C90A3
:105260000D9009946846FDF74DFB08B172B6FEE754
:105270000F20CDE91F0400242194229402211FA8AD
:105280002394FDF7F5F908B172B6FEE70848CDE9B9
:105290000E0440071D904FF440701E900EA8FDF7BD
:1052A000A3F8002801D072B6FEE724B010BD0000BC
:1052B000018008000248016841F4700101607047F4
:1052C00088ED00E00148FEF799BA00008001002057
:1052D0000148FEF793BA0000CC0100200148FEF718
:1052E0008DBA0000180200200148FEF787BA0000BE
:1052F000640200202DE9F0430268234B234D244E25
:10530000244C4FF08049984207D0484505D0A84228
:1053100003D0B04201D0A04203D122F070074A6806
:105320003A431D4FDFF874C0DFF8748098420DD007
:1053300048450BD0A84209D0B04207D0A04205D0C2
:10534000B84203D0604501D0404503D122F44075F6
:10535000CA682A434D6922F080022A4302608A68A3
:10536000C2620A688262984207D0A04205D0B84261
:1053700003D0604501D0404501D109690163012195
:105380004161BDE8F0830000002C014000040040B2
:10539000000800400034014000400140004401404A
:1053A0000048014010B501F01F030121046A994033
:1053B0008C430462016A9A401143016210BD10B52A
:1053C000846842EA032224F47F440A432243826031
:1053D00010BD00008268034B1A400A4342F00701E7
:1053E000816070478FFFCFFF2DE9F043026A22F002
:1053F00001020262056A436882691C4C25F00205BD
:1054000022400C6822F0030214438A68194E2A4392
:10541000174D194FDFF864C0DFF86490A84207D039
:10542000B04205D0B84203D0604501D0484506D10E
:1054300022F00808CA6842EA080222F00402A842E0
:1054400007D0B04205D0B84203D0604501D04845EE
:1054500005D14D6923F440731D438B692B43436091
:105460008461496841630262BDE8F0838FFFFEFFFB
:10547000002C014000340140004001400044014044
:1054800000480140F0B5026A22F010020262056A8B
:1054900042688369194C1B4E23400C6823F4407307
:1054A00043EA042425F020038D6843EA0513144DD4
:1054B000A84201D0B04206D1CF6823F0800343EA6E
:1054C000071323F04003A8420AD0B04208D00E4D83
:1054D000A84205D00D4DA84202D00D4DA84207D1DB
:1054E0004D6922F4406242EA85028D6942EA8502F2
:1054F00042608461496881630362F0BDFF8FFFFEF3
:10550000002C0140003401400040014000440140B3
:1055100000480140F0B5026A22F480720262056A16
:105520004368C269194C1B4E22400C6822F00302EA
:10553000144325F400728D6842EA0522144DA842F6
:1055400001D0B04206D1CF6822F4006242EA0722BD
:1055500022F48062A8420AD0B04208D00E4DA84280
:1055600005D00E4DA84202D00D4DA84207D14D697D
:1055700023F4405343EA05138D6943EA051343605E
:10558000C4614968C1630262F0BD00008FFFFEFF85
:10559000002C014000340140004001400044014023
:1055A00000480140F0B5026A22F480520262056AA6
:1055B0004268C369194C1B4E23400C6823F44073A6
:1055C00043EA042425F400538D6843EA0533144D5F
:1055D000A84201D0B04206D1CF6823F4004343EA89
:1055E000073323F48043A8420AD0B04208D00E4DBE
:1055F000A84205D00D4DA84202D00D4DA84207D1BA
:105600004D6922F4404242EA85128D6942EA8512D0
:105610004260C461496801640362F0BDFF8FFFFE10
:10562000002C014000340140004001400044014092
:105630000048014030B5026A22F480320262046AF6
:105640004268036D114D2B400D681D4324F4003357
:105650000C8943EA04430E4CA0420BD00D4CA042EF
:1056600008D00D4CA04205D00C4CA04202D00C4CEE
:10567000A04204D14C6922F4803242EA0422426002
:10568000056549688164036230BD00008FFFFEFF3D
:10569000002C014000340140004001400044014022
:1056A0000048014030B5026A22F480120262046AA6
:1056B0004268036D114D24F400142B400D6843EA39
:1056C00005230D8944EA05540D4DA8420BD00D4D1C
:1056D000A84208D00C4DA84205D00C4DA84202D0DB
:1056E0000B4DA84204D14D6922F4802242EA852262
:1056F000426003654968C164046230BDFF8FFFFEEC
:10570000002C0140003401400040014000440140B1
:105710000048014010B5036A046A24F001040462E1
:10572000846924F0F00444EA021423F00A020A43D4
:105730008461026210BD000070B5046A24F00104A7
:1057400004628469056A124EB0420ED0B0F1804FF7
:105750000BD0104EB04208D00F4EB04205D00F4EC5
:10576000B04202D00E4EB04203D124F003041443E1
:1057700001E044F001041A0724F0F00444EA126244
:1057800025F00A0301F00A0119438261016270BD2C
:10579000002C01400004004000080040003401409B
:1057A0000040014010B5036A23F0100303628369CF
:1057B000046A23F4704343EA023224F0A00343EA6C
:1057C00001118261016210BD30B5046A24F0100439
:1057D00004628469056A24F4407444EA022222F4D3
:1057E00070444FF6FF7202EA03322243A02425F0F0
:1057F000A00304EA011119438261016230BD000077
:1058000030B5416EB9B1026891689268C1F34261E6
:105810000B4B520F9C5CE50003F10804A25CB5FB46
:10582000F2F2A0F86A205A5C615CD200B2FBF1F19E
:10583000A0F8681030BD0121A0F86A10F8E7000058
:105840001282000890F82810C90706D001684A683B
:10585000C36A22F400321A434A6090F8281089077C
:1058600006D501684A68036B22F480321A434A6005
:1058700090F82810490706D501684A68436B22F45E
:1058800080221A434A6090F82810090706D501685B
:105890004A68836B22F400421A434A6090F8281049
:1058A000C90606D501688A68C36B22F480521A4380
:1058B0008A6090F82810890606D501688A68036C0A
:1058C00022F400521A438A6090F82810490611D534
:1058D00001684A68436C22F480121A434A60416CA2
:1058E000B1F5801F06D101684A68836C22F4C002BA
:1058F0001A434A6090F82810090606D501684A68DC
:10590000C06C22F4002202434A607047F8B50026BA
:105910000446C0F88C60FCF769FC05462068006806
:105920006FF07E47000708D52B4600224FF4001188
:105930002046009700F0A2FB60B92068006840078D
:105940000AD52B4600224FF480012046009700F034
:1059500095FB08B10320F8BD2020C4F88400C4F8EA
:10596000880044F86C6F00202675F8BD10B5806A79
:105970000021A0F85E10A0F85610FEF75FFB10BDE6
:1059800001680A6822F490720A6001688A68094B0B
:105990001A408A60C16E012904D101680A6822F0A8
:1059A00010020A602021C0F888100021C16601673A
:1059B00070470000FEFFFFEF70B5B0F86010D0F840
:1059C000882004460068222A04D0816941F0080139
:1059D000816170BD406AA26D08401080A06D801C7E
:1059E000A065B4F85E00401EA4F85E00B4F85E0046
:1059F0000028EED12068016821F4907101602068D0
:105A0000816821F0010181602020C4F88800002510
:105A10002567E06E012804D02046FEF7E9FCE56624
:105A200070BD2068016821F010010160B4F85C10BD
:105A30002046FEF7B3FAF2E72DE9F0470446B0F846
:105A400060600068C569D0F800A0D0F80880D4F87C
:105A50008810222905D0816941F008018161BDE8E3
:105A6000F087B4F868704FF000095BE02068406A86
:105A7000A16D30400880A06D801CA065B4F85E0068
:105A8000401EA4F85E002068C569690730D0E907A8
:105A90000AD05FEACA5107D501210162D4F88C000F
:105AA00040F00100C4F88C00A8070BD55FEAC8706D
:105AB00008D0216802200862D4F88C0040F004006D
:105AC000C4F88C0068070BD55FEAC87008D021685D
:105AD00004200862D4F88C0040F00200C4F88C0066
